{
  "contractName": "BlockchainSplitwiseV2",
  "abi": [
    {
      "constant": true,
      "inputs": [
        {
          "name": "",
          "type": "address"
        }
      ],
      "name": "userExists",
      "outputs": [
        {
          "name": "",
          "type": "bool"
        }
      ],
      "payable": false,
      "stateMutability": "view",
      "type": "function"
    },
    {
      "constant": true,
      "inputs": [
        {
          "name": "",
          "type": "uint256"
        }
      ],
      "name": "users",
      "outputs": [
        {
          "name": "",
          "type": "address"
        }
      ],
      "payable": false,
      "stateMutability": "view",
      "type": "function"
    },
    {
      "constant": true,
      "inputs": [
        {
          "name": "",
          "type": "address"
        },
        {
          "name": "",
          "type": "address"
        }
      ],
      "name": "debts",
      "outputs": [
        {
          "name": "",
          "type": "uint32"
        }
      ],
      "payable": false,
      "stateMutability": "view",
      "type": "function"
    },
    {
      "constant": true,
      "inputs": [
        {
          "name": "",
          "type": "address"
        }
      ],
      "name": "lastActive",
      "outputs": [
        {
          "name": "",
          "type": "uint32"
        }
      ],
      "payable": false,
      "stateMutability": "view",
      "type": "function"
    },
    {
      "anonymous": false,
      "inputs": [
        {
          "indexed": true,
          "name": "debtor",
          "type": "address"
        },
        {
          "indexed": true,
          "name": "creditor",
          "type": "address"
        },
        {
          "indexed": false,
          "name": "amount",
          "type": "uint32"
        }
      ],
      "name": "IOUAdded",
      "type": "event"
    },
    {
      "anonymous": false,
      "inputs": [
        {
          "indexed": true,
          "name": "debtor",
          "type": "address"
        },
        {
          "indexed": true,
          "name": "creditor",
          "type": "address"
        },
        {
          "indexed": false,
          "name": "amount",
          "type": "uint32"
        }
      ],
      "name": "IOUSettled",
      "type": "event"
    },
    {
      "constant": true,
      "inputs": [],
      "name": "getNumUsers",
      "outputs": [
        {
          "name": "",
          "type": "uint256"
        }
      ],
      "payable": false,
      "stateMutability": "view",
      "type": "function"
    },
    {
      "constant": true,
      "inputs": [
        {
          "name": "i",
          "type": "uint256"
        }
      ],
      "name": "usersIndex",
      "outputs": [
        {
          "name": "",
          "type": "address"
        }
      ],
      "payable": false,
      "stateMutability": "view",
      "type": "function"
    },
    {
      "constant": true,
      "inputs": [
        {
          "name": "debtor",
          "type": "address"
        },
        {
          "name": "creditor",
          "type": "address"
        }
      ],
      "name": "lookup",
      "outputs": [
        {
          "name": "",
          "type": "uint32"
        }
      ],
      "payable": false,
      "stateMutability": "view",
      "type": "function"
    },
    {
      "constant": false,
      "inputs": [
        {
          "name": "creditor",
          "type": "address"
        },
        {
          "name": "amount",
          "type": "uint32"
        }
      ],
      "name": "add_IOU",
      "outputs": [],
      "payable": false,
      "stateMutability": "nonpayable",
      "type": "function"
    },
    {
      "constant": false,
      "inputs": [
        {
          "name": "creditor",
          "type": "address"
        },
        {
          "name": "amount",
          "type": "uint32"
        }
      ],
      "name": "settle_IOU",
      "outputs": [],
      "payable": false,
      "stateMutability": "nonpayable",
      "type": "function"
    }
  ],
  "bytecode": "0x608060405234801561001057600080fd5b50610b81806100206000396000f300608060405260043610610099576000357c0100000000000000000000000000000000000000000000000000000000900463ffffffff1680630e666e491461009e57806310fdda09146100f9578063365b98b21461016657806342c8d003146101d35780634ac1c33d1461022657806365f88c0d146102a9578063713584a6146102d4578063c2ec28d614610357578063d12099e4146103ba575b600080fd5b3480156100aa57600080fd5b506100df600480360381019080803573ffffffffffffffffffffffffffffffffffffffff16906020019092919050505061040d565b604051808215151515815260200191505060405180910390f35b34801561010557600080fd5b506101246004803603810190808035906020019092919050505061042d565b604051808273ffffffffffffffffffffffffffffffffffffffff1673ffffffffffffffffffffffffffffffffffffffff16815260200191505060405180910390f35b34801561017257600080fd5b5061019160048036038101908080359060200190929190505050610470565b604051808273ffffffffffffffffffffffffffffffffffffffff1673ffffffffffffffffffffffffffffffffffffffff16815260200191505060405180910390f35b3480156101df57600080fd5b50610224600480360381019080803573ffffffffffffffffffffffffffffffffffffffff169060200190929190803563ffffffff1690602001909291905050506104ae565b005b34801561023257600080fd5b50610287600480360381019080803573ffffffffffffffffffffffffffffffffffffffff169060200190929190803573ffffffffffffffffffffffffffffffffffffffff1690602001909291905050506106e6565b604051808263ffffffff1663ffffffff16815260200191505060405180910390f35b3480156102b557600080fd5b506102be610718565b6040518082815260200191505060405180910390f35b3480156102e057600080fd5b50610335600480360381019080803573ffffffffffffffffffffffffffffffffffffffff169060200190929190803573ffffffffffffffffffffffffffffffffffffffff169060200190929190505050610725565b604051808263ffffffff1663ffffffff16815260200191505060405180910390f35b34801561036357600080fd5b50610398600480360381019080803573ffffffffffffffffffffffffffffffffffffffff1690602001909291905050506107bb565b604051808263ffffffff1663ffffffff16815260200191505060405180910390f35b3480156103c657600080fd5b5061040b600480360381019080803573ffffffffffffffffffffffffffffffffffffffff169060200190929190803563ffffffff1690602001909291905050506107de565b005b60026020528060005260406000206000915054906101000a900460ff1681565b600060018281548110151561043e57fe5b9060005260206000200160009054906101000a900473ffffffffffffffffffffffffffffffffffffffff169050919050565b60018181548110151561047f57fe5b906000526020600020016000915054906101000a900473ffffffffffffffffffffffffffffffffffffffff1681565b60008060003392506000808473ffffffffffffffffffffffffffffffffffffffff1673ffffffffffffffffffffffffffffffffffffffff16815260200190815260200160002060008673ffffffffffffffffffffffffffffffffffffffff1673ffffffffffffffffffffffffffffffffffffffff16815260200190815260200160002060009054906101000a900463ffffffff16915060008263ffffffff1611151561055957600080fd5b8390508163ffffffff168163ffffffff161115610574578190505b8082036000808573ffffffffffffffffffffffffffffffffffffffff1673ffffffffffffffffffffffffffffffffffffffff16815260200190815260200160002060008773ffffffffffffffffffffffffffffffffffffffff1673ffffffffffffffffffffffffffffffffffffffff16815260200190815260200160002060006101000a81548163ffffffff021916908363ffffffff16021790555042600360008573ffffffffffffffffffffffffffffffffffffffff1673ffffffffffffffffffffffffffffffffffffffff16815260200190815260200160002060006101000a81548163ffffffff021916908363ffffffff1602179055508473ffffffffffffffffffffffffffffffffffffffff168373ffffffffffffffffffffffffffffffffffffffff167f9d54589772483ef24737dd9f12b6df3ca02702b6d2072884ac76a2b09870e09283604051808263ffffffff1663ffffffff16815260200191505060405180910390a35050505050565b60006020528160005260406000206020528060005260406000206000915091509054906101000a900463ffffffff1681565b6000600180549050905090565b60008060008473ffffffffffffffffffffffffffffffffffffffff1673ffffffffffffffffffffffffffffffffffffffff16815260200190815260200160002060008373ffffffffffffffffffffffffffffffffffffffff1673ffffffffffffffffffffffffffffffffffffffff16815260200190815260200160002060009054906101000a900463ffffffff16905092915050565b60036020528060005260406000206000915054906101000a900463ffffffff1681565b60008073ffffffffffffffffffffffffffffffffffffffff168373ffffffffffffffffffffffffffffffffffffffff161415151561081b57600080fd5b60008263ffffffff1611151561083057600080fd5b33905061083c81610a40565b61084583610a40565b816000808373ffffffffffffffffffffffffffffffffffffffff1673ffffffffffffffffffffffffffffffffffffffff16815260200190815260200160002060008573ffffffffffffffffffffffffffffffffffffffff1673ffffffffffffffffffffffffffffffffffffffff16815260200190815260200160002060009054906101000a900463ffffffff16016000808373ffffffffffffffffffffffffffffffffffffffff1673ffffffffffffffffffffffffffffffffffffffff16815260200190815260200160002060008573ffffffffffffffffffffffffffffffffffffffff1673ffffffffffffffffffffffffffffffffffffffff16815260200190815260200160002060006101000a81548163ffffffff021916908363ffffffff16021790555042600360008373ffffffffffffffffffffffffffffffffffffffff1673ffffffffffffffffffffffffffffffffffffffff16815260200190815260200160002060006101000a81548163ffffffff021916908363ffffffff1602179055508273ffffffffffffffffffffffffffffffffffffffff168173ffffffffffffffffffffffffffffffffffffffff167f440d12aa55d392761d1714333c8792748728af358c02f3ee342424b843a9c0d684604051808263ffffffff1663ffffffff16815260200191505060405180910390a3505050565b600260008273ffffffffffffffffffffffffffffffffffffffff1673ffffffffffffffffffffffffffffffffffffffff16815260200190815260200160002060009054906101000a900460ff161515610b52576001600260008373ffffffffffffffffffffffffffffffffffffffff1673ffffffffffffffffffffffffffffffffffffffff16815260200190815260200160002060006101000a81548160ff02191690831515021790555060018190806001815401808255809150509060018203906000526020600020016000909192909190916101000a81548173ffffffffffffffffffffffffffffffffffffffff021916908373ffffffffffffffffffffffffffffffffffffffff160217905550505b505600a165627a7a72305820183c0bc70663bcce95ccf0cfc47e887f9f98a307b989bb7391e64fa9144b97830029",
  "source": "pragma solidity ^0.4.24;\n\ncontract BlockchainSplitwiseV2 {\n    // debts[debtor][creditor] = amount\n    mapping(address => mapping(address => uint32)) public debts;\n    address[] public users;\n    mapping(address => bool) public userExists;\n    mapping(address => uint32) public lastActive;\n\n    event IOUAdded(address indexed debtor, address indexed creditor, uint32 amount);\n    event IOUSettled(address indexed debtor, address indexed creditor, uint32 amount);\n\n    function _addUser(address u) internal {\n        if (!userExists[u]) {\n            userExists[u] = true;\n            users.push(u);\n        }\n    }\n\n    function getNumUsers() public view returns (uint256) {\n        return users.length;\n    }\n\n    function usersIndex(uint256 i) public view returns (address) {\n        return users[i];\n    }\n\n    function lookup(address debtor, address creditor) public view returns (uint32) {\n        return debts[debtor][creditor];\n    }\n\n    function add_IOU(address creditor, uint32 amount) public {\n        require(creditor != address(0));\n        require(amount > 0);\n        address debtor = msg.sender;\n        _addUser(debtor);\n        _addUser(creditor);\n        debts[debtor][creditor] = debts[debtor][creditor] + amount;\n        lastActive[debtor] = uint32(now);\n        emit IOUAdded(debtor, creditor, amount);\n    }\n\n    // Allow debtor to reduce their debt to creditor by `amount` (up to existing debt)\n    function settle_IOU(address creditor, uint32 amount) public {\n        address debtor = msg.sender;\n        uint32 owed = debts[debtor][creditor];\n        require(owed > 0);\n        uint32 reduction = amount;\n        if (reduction > owed) {\n            reduction = owed;\n        }\n        debts[debtor][creditor] = owed - reduction;\n        lastActive[debtor] = uint32(now);\n        emit IOUSettled(debtor, creditor, reduction);\n    }\n}\n",
  "sourcePath": "/home/craftoldw/1learningoutput/BlockChain/Ex5/truffle/contracts/BlockchainSplitwiseV2.sol",
  "compiler": {
    "name": "solc",
    "version": "0.4.26+commit.4563c3fc.Emscripten.clang"
  },
  "schemaVersion": "3.4.16",
  "updatedAt": "2025-12-09T08:45:31.636Z",
  "networkType": "ethereum",
  "devdoc": {
    "methods": {}
  },
  "userdoc": {
    "methods": {}
  }
}